{
  "_format": "hh-sol-artifact-1",
  "contractName": "WavePortal",
  "sourceName": "../WavePortal.sol",
  "abi": [
    {
      "inputs": [],
      "stateMutability": "nonpayable",
      "type": "constructor"
    },
    {
      "anonymous": false,
      "inputs": [
        {
          "indexed": false,
          "internalType": "enum WavePortal.Reaction",
          "name": "reaction",
          "type": "uint8"
        },
        {
          "indexed": false,
          "internalType": "string",
          "name": "message",
          "type": "string"
        },
        {
          "indexed": true,
          "internalType": "address",
          "name": "from",
          "type": "address"
        },
        {
          "indexed": false,
          "internalType": "uint256",
          "name": "timestamp",
          "type": "uint256"
        }
      ],
      "name": "NewWave",
      "type": "event"
    },
    {
      "inputs": [],
      "name": "getAllWaves",
      "outputs": [
        {
          "components": [
            {
              "internalType": "enum WavePortal.Reaction",
              "name": "reaction",
              "type": "uint8"
            },
            {
              "internalType": "string",
              "name": "message",
              "type": "string"
            },
            {
              "internalType": "address",
              "name": "waver",
              "type": "address"
            },
            {
              "internalType": "uint256",
              "name": "timestamp",
              "type": "uint256"
            }
          ],
          "internalType": "struct WavePortal.Wave[]",
          "name": "",
          "type": "tuple[]"
        }
      ],
      "stateMutability": "view",
      "type": "function"
    },
    {
      "inputs": [],
      "name": "getTotalWaves",
      "outputs": [
        {
          "internalType": "uint256",
          "name": "",
          "type": "uint256"
        }
      ],
      "stateMutability": "view",
      "type": "function"
    },
    {
      "inputs": [
        {
          "internalType": "enum WavePortal.Reaction",
          "name": "_reaction",
          "type": "uint8"
        },
        {
          "internalType": "string",
          "name": "_message",
          "type": "string"
        }
      ],
      "name": "wave",
      "outputs": [],
      "stateMutability": "nonpayable",
      "type": "function"
    },
    {
      "inputs": [
        {
          "internalType": "uint256",
          "name": "",
          "type": "uint256"
        }
      ],
      "name": "waveList",
      "outputs": [
        {
          "internalType": "enum WavePortal.Reaction",
          "name": "reaction",
          "type": "uint8"
        },
        {
          "internalType": "string",
          "name": "message",
          "type": "string"
        },
        {
          "internalType": "address",
          "name": "waver",
          "type": "address"
        },
        {
          "internalType": "uint256",
          "name": "timestamp",
          "type": "uint256"
        }
      ],
      "stateMutability": "view",
      "type": "function"
    }
  ],
  "bytecode": "0x608060405234801561001057600080fd5b50610d0c806100206000396000f3fe608060405234801561001057600080fd5b506004361061004c5760003560e01c806348c29f14146100515780638b9c3ecd1461006d5780639a2cdc08146100a0578063bd43a908146100be575b600080fd5b61006b600480360381019061006691906106ba565b6100dc565b005b6100876004803603810190610082919061070e565b6102ab565b6040516100979493929190610911565b60405180910390f35b6100a86103a0565b6040516100b5919061099b565b60405180910390f35b6100c66103ad565b6040516100d391906108ef565b60405180910390f35b60016000808282546100ee9190610a72565b925050819055506001604051806080016040528084600281111561013b577f4e487b7100000000000000000000000000000000000000000000000000000000600052602160045260246000fd5b81526020018381526020013373ffffffffffffffffffffffffffffffffffffffff16815260200142815250908060018154018082558091505060019003906000526020600020906004020160009091909190915060008201518160000160006101000a81548160ff021916908360028111156101e0577f4e487b7100000000000000000000000000000000000000000000000000000000600052602160045260246000fd5b02179055506020820151816001019080519060200190610201929190610585565b5060408201518160020160006101000a81548173ffffffffffffffffffffffffffffffffffffffff021916908373ffffffffffffffffffffffffffffffffffffffff1602179055506060820151816003015550503373ffffffffffffffffffffffffffffffffffffffff167f2d6873fdbcd96c625e1fafa3267b0aab6e37f9be7d7a32baf9f6875c5e29844483834260405161029f9392919061095d565b60405180910390a25050565b600181815481106102bb57600080fd5b90600052602060002090600402016000915090508060000160009054906101000a900460ff16908060010180546102f190610b6b565b80601f016020809104026020016040519081016040528092919081815260200182805461031d90610b6b565b801561036a5780601f1061033f5761010080835404028352916020019161036a565b820191906000526020600020905b81548152906001019060200180831161034d57829003601f168201915b5050505050908060020160009054906101000a900473ffffffffffffffffffffffffffffffffffffffff16908060030154905084565b6000600180549050905090565b60606001805480602002602001604051908101604052809291908181526020016000905b8282101561057c57838290600052602060002090600402016040518060800160405290816000820160009054906101000a900460ff16600281111561043f577f4e487b7100000000000000000000000000000000000000000000000000000000600052602160045260246000fd5b6002811115610477577f4e487b7100000000000000000000000000000000000000000000000000000000600052602160045260246000fd5b815260200160018201805461048b90610b6b565b80601f01602080910402602001604051908101604052809291908181526020018280546104b790610b6b565b80156105045780601f106104d957610100808354040283529160200191610504565b820191906000526020600020905b8154815290600101906020018083116104e757829003601f168201915b505050505081526020016002820160009054906101000a900473ffffffffffffffffffffffffffffffffffffffff1673ffffffffffffffffffffffffffffffffffffffff1673ffffffffffffffffffffffffffffffffffffffff168152602001600382015481525050815260200190600101906103d1565b50505050905090565b82805461059190610b6b565b90600052602060002090601f0160209004810192826105b357600085556105fa565b82601f106105cc57805160ff19168380011785556105fa565b828001600101855582156105fa579182015b828111156105f95782518255916020019190600101906105de565b5b509050610607919061060b565b5090565b5b8082111561062457600081600090555060010161060c565b5090565b600061063b610636846109db565b6109b6565b90508281526020810184848401111561065357600080fd5b61065e848285610b29565b509392505050565b60008135905061067581610caf565b92915050565b600082601f83011261068c57600080fd5b813561069c848260208601610628565b91505092915050565b6000813590506106b481610cbf565b92915050565b600080604083850312156106cd57600080fd5b60006106db85828601610666565b925050602083013567ffffffffffffffff8111156106f857600080fd5b6107048582860161067b565b9150509250929050565b60006020828403121561072057600080fd5b600061072e848285016106a5565b91505092915050565b6000610743838361086e565b905092915050565b61075481610ac8565b82525050565b61076381610ac8565b82525050565b600061077482610a1c565b61077e8185610a3f565b93508360208202850161079085610a0c565b8060005b858110156107cc57848403895281516107ad8582610737565b94506107b883610a32565b925060208a01995050600181019050610794565b50829750879550505050505092915050565b6107e781610b17565b82525050565b6107f681610b17565b82525050565b600061080782610a27565b6108118185610a50565b9350610821818560208601610b38565b61082a81610c8a565b840191505092915050565b600061084082610a27565b61084a8185610a61565b935061085a818560208601610b38565b61086381610c8a565b840191505092915050565b600060808301600083015161088660008601826107de565b506020830151848203602086015261089e82826107fc565b91505060408301516108b3604086018261074b565b5060608301516108c660608601826108d1565b508091505092915050565b6108da81610b0d565b82525050565b6108e981610b0d565b82525050565b600060208201905081810360008301526109098184610769565b905092915050565b600060808201905061092660008301876107ed565b81810360208301526109388186610835565b9050610947604083018561075a565b61095460608301846108e0565b95945050505050565b600060608201905061097260008301866107ed565b81810360208301526109848185610835565b905061099360408301846108e0565b949350505050565b60006020820190506109b060008301846108e0565b92915050565b60006109c06109d1565b90506109cc8282610b9d565b919050565b6000604051905090565b600067ffffffffffffffff8211156109f6576109f5610c5b565b5b6109ff82610c8a565b9050602081019050919050565b6000819050602082019050919050565b600081519050919050565b600081519050919050565b6000602082019050919050565b600082825260208201905092915050565b600082825260208201905092915050565b600082825260208201905092915050565b6000610a7d82610b0d565b9150610a8883610b0d565b9250827fffffffffffffffffffffffffffffffffffffffffffffffffffffffffffffffff03821115610abd57610abc610bce565b5b828201905092915050565b6000610ad382610aed565b9050919050565b6000819050610ae882610c9b565b919050565b600073ffffffffffffffffffffffffffffffffffffffff82169050919050565b6000819050919050565b6000610b2282610ada565b9050919050565b82818337600083830152505050565b60005b83811015610b56578082015181840152602081019050610b3b565b83811115610b65576000848401525b50505050565b60006002820490506001821680610b8357607f821691505b60208210811415610b9757610b96610c2c565b5b50919050565b610ba682610c8a565b810181811067ffffffffffffffff82111715610bc557610bc4610c5b565b5b80604052505050565b7f4e487b7100000000000000000000000000000000000000000000000000000000600052601160045260246000fd5b7f4e487b7100000000000000000000000000000000000000000000000000000000600052602160045260246000fd5b7f4e487b7100000000000000000000000000000000000000000000000000000000600052602260045260246000fd5b7f4e487b7100000000000000000000000000000000000000000000000000000000600052604160045260246000fd5b6000601f19601f8301169050919050565b60038110610cac57610cab610bfd565b5b50565b60038110610cbc57600080fd5b50565b610cc881610b0d565b8114610cd357600080fd5b5056fea2646970667358221220e59604963b03c7157df9c2758c02c6e772b56ae10162e27885a692a1b60e85c664736f6c63430008040033",
  "linkReferences": {},
  "deployedLinkReferences": {}
}